{
  "contractName": "MessageContract",
  "abi": [
    {
      "anonymous": false,
      "inputs": [
        {
          "indexed": false,
          "internalType": "string",
          "name": "message",
          "type": "string"
        },
        {
          "indexed": false,
          "internalType": "uint256",
          "name": "messageNumber",
          "type": "uint256"
        }
      ],
      "name": "MessageCreated",
      "type": "event"
    },
    {
      "constant": true,
      "inputs": [],
      "name": "messageCount",
      "outputs": [
        {
          "internalType": "uint256",
          "name": "",
          "type": "uint256"
        }
      ],
      "payable": false,
      "stateMutability": "view",
      "type": "function"
    },
    {
      "constant": true,
      "inputs": [
        {
          "internalType": "uint256",
          "name": "",
          "type": "uint256"
        }
      ],
      "name": "messages",
      "outputs": [
        {
          "internalType": "uint256",
          "name": "index",
          "type": "uint256"
        },
        {
          "internalType": "string",
          "name": "message",
          "type": "string"
        }
      ],
      "payable": false,
      "stateMutability": "view",
      "type": "function"
    },
    {
      "constant": false,
      "inputs": [
        {
          "internalType": "string",
          "name": "_message",
          "type": "string"
        }
      ],
      "name": "createMessage",
      "outputs": [],
      "payable": false,
      "stateMutability": "nonpayable",
      "type": "function"
    }
  ],
  "bytecode": "0x60806040526000805534801561001457600080fd5b5061047b806100246000396000f3fe608060405234801561001057600080fd5b50600436106100415760003560e01c80630d80fefd14610046578063198a2de9146100f45780633dbcc8d1146101af575b600080fd5b6100726004803603602081101561005c57600080fd5b81019080803590602001909291905050506101cd565b6040518083815260200180602001828103825283818151815260200191508051906020019080838360005b838110156100b857808201518184015260208101905061009d565b50505050905090810190601f1680156100e55780820380516001836020036101000a031916815260200191505b50935050505060405180910390f35b6101ad6004803603602081101561010a57600080fd5b810190808035906020019064010000000081111561012757600080fd5b82018360208201111561013957600080fd5b8035906020019184600183028401116401000000008311171561015b57600080fd5b91908080601f016020809104026020016040519081016040528093929190818152602001838380828437600081840152601f19601f820116905080830192505050505050509192919290505050610289565b005b6101b761039b565b6040518082815260200191505060405180910390f35b6001602052806000526040600020600091509050806000015490806001018054600181600116156101000203166002900480601f01602080910402602001604051908101604052809291908181526020018280546001816001161561010002031660029004801561027f5780601f106102545761010080835404028352916020019161027f565b820191906000526020600020905b81548152906001019060200180831161026257829003601f168201915b5050505050905082565b604051806040016040528060005481526020018281525060016000805481526020019081526020016000206000820151816000015560208201518160010190805190602001906102da9291906103a1565b5090505060008081548092919060010191905055507ff7be7acf6ee12028d5f8905accb138284a9c004c527af4726f18e11a6c561bee816001600054036040518080602001838152602001828103825284818151815260200191508051906020019080838360005b8381101561035d578082015181840152602081019050610342565b50505050905090810190601f16801561038a5780820380516001836020036101000a031916815260200191505b50935050505060405180910390a150565b60005481565b828054600181600116156101000203166002900490600052602060002090601f016020900481019282601f106103e257805160ff1916838001178555610410565b82800160010185558215610410579182015b8281111561040f5782518255916020019190600101906103f4565b5b50905061041d9190610421565b5090565b61044391905b8082111561043f576000816000905550600101610427565b5090565b9056fea265627a7a723158207ae86f830ba844ebe9e4bf501aff35a67562867cab1d0f6175fafb7fcb0d1f4464736f6c63430005100032",
  "source": "// SPDX-License-Identifier: GPL-3.0\npragma solidity >=0.4.22 <0.9.0;\n\ncontract MessageContract {\n    uint256 public messageCount = 0;\n\n    struct Message {\n        uint256 index;\n        string message;\n    }\n\n    mapping(uint256 => Message) public messages;\n    event MessageCreated(string message, uint256 messageNumber);\n\n    function createMessage(string memory _message) public {\n        // Create a new message at the index of the messageCount\n        messages[messageCount] = Message(messageCount, _message);\n        // Increment the messageCount\n        messageCount++;\n        // Emit the event, use messageCount - 1 as the index as we incremented already.\n        emit MessageCreated(_message, messageCount - 1);\n    }\n}\n",
  "sourcePath": "/Users/poco/Desktop/playground/feed_dapp/blockchain/contracts/message_contract.sol",
  "compiler": {
    "name": "solc",
    "version": "0.5.16+commit.9c3226ce.Emscripten.clang"
  },
  "schemaVersion": "3.4.9",
  "updatedAt": "2022-08-16T10:52:46.099Z",
  "networkType": "ethereum",
  "devdoc": {
    "methods": {}
  },
  "userdoc": {
    "methods": {}
  }
}